{
  "_format": "hh-sol-artifact-1",
  "contractName": "Escrow",
  "sourceName": "contracts/Escrow.sol",
  "abi": [
    {
      "inputs": [
        {
          "internalType": "address",
          "name": "_depositor",
          "type": "address"
        },
        {
          "internalType": "address",
          "name": "_token",
          "type": "address"
        },
        {
          "internalType": "uint256",
          "name": "_amount",
          "type": "uint256"
        },
        {
          "internalType": "address",
          "name": "_counterparty",
          "type": "address"
        },
        {
          "internalType": "address",
          "name": "_arbiter",
          "type": "address"
        },
        {
          "internalType": "bytes32",
          "name": "_tradeHash",
          "type": "bytes32"
        },
        {
          "internalType": "bytes",
          "name": "_signature",
          "type": "bytes"
        },
        {
          "internalType": "address",
          "name": "_uniswapRouter",
          "type": "address"
        },
        {
          "internalType": "address",
          "name": "initialOwner",
          "type": "address"
        }
      ],
      "stateMutability": "nonpayable",
      "type": "constructor"
    },
    {
      "inputs": [
        {
          "internalType": "address",
          "name": "owner",
          "type": "address"
        }
      ],
      "name": "OwnableInvalidOwner",
      "type": "error"
    },
    {
      "inputs": [
        {
          "internalType": "address",
          "name": "account",
          "type": "address"
        }
      ],
      "name": "OwnableUnauthorizedAccount",
      "type": "error"
    },
    {
      "anonymous": false,
      "inputs": [
        {
          "indexed": true,
          "internalType": "address",
          "name": "sender",
          "type": "address"
        }
      ],
      "name": "Confirmed",
      "type": "event"
    },
    {
      "anonymous": false,
      "inputs": [
        {
          "indexed": true,
          "internalType": "address",
          "name": "depositor",
          "type": "address"
        },
        {
          "indexed": true,
          "internalType": "address",
          "name": "token",
          "type": "address"
        },
        {
          "indexed": false,
          "internalType": "uint256",
          "name": "amount",
          "type": "uint256"
        }
      ],
      "name": "Deposit",
      "type": "event"
    },
    {
      "anonymous": false,
      "inputs": [
        {
          "indexed": true,
          "internalType": "address",
          "name": "depositor",
          "type": "address"
        },
        {
          "indexed": false,
          "internalType": "uint256",
          "name": "amount",
          "type": "uint256"
        }
      ],
      "name": "Deposited",
      "type": "event"
    },
    {
      "anonymous": false,
      "inputs": [
        {
          "indexed": true,
          "internalType": "address",
          "name": "counterparty",
          "type": "address"
        },
        {
          "indexed": true,
          "internalType": "address",
          "name": "token",
          "type": "address"
        },
        {
          "indexed": false,
          "internalType": "uint256",
          "name": "amount",
          "type": "uint256"
        }
      ],
      "name": "Executed",
      "type": "event"
    },
    {
      "anonymous": false,
      "inputs": [
        {
          "indexed": true,
          "internalType": "address",
          "name": "previousOwner",
          "type": "address"
        },
        {
          "indexed": true,
          "internalType": "address",
          "name": "newOwner",
          "type": "address"
        }
      ],
      "name": "OwnershipTransferred",
      "type": "event"
    },
    {
      "anonymous": false,
      "inputs": [
        {
          "indexed": true,
          "internalType": "address",
          "name": "depositor",
          "type": "address"
        },
        {
          "indexed": true,
          "internalType": "address",
          "name": "token",
          "type": "address"
        },
        {
          "indexed": false,
          "internalType": "uint256",
          "name": "amount",
          "type": "uint256"
        }
      ],
      "name": "Refunded",
      "type": "event"
    },
    {
      "anonymous": false,
      "inputs": [
        {
          "indexed": true,
          "internalType": "address",
          "name": "counterparty",
          "type": "address"
        },
        {
          "indexed": true,
          "internalType": "address",
          "name": "token",
          "type": "address"
        },
        {
          "indexed": false,
          "internalType": "uint256",
          "name": "amount",
          "type": "uint256"
        }
      ],
      "name": "Released",
      "type": "event"
    },
    {
      "anonymous": false,
      "inputs": [
        {
          "indexed": true,
          "internalType": "address",
          "name": "inputToken",
          "type": "address"
        },
        {
          "indexed": true,
          "internalType": "address",
          "name": "outputToken",
          "type": "address"
        },
        {
          "indexed": false,
          "internalType": "uint256",
          "name": "amountIn",
          "type": "uint256"
        },
        {
          "indexed": false,
          "internalType": "uint256",
          "name": "amountOut",
          "type": "uint256"
        },
        {
          "indexed": true,
          "internalType": "address",
          "name": "recipient",
          "type": "address"
        }
      ],
      "name": "SwapExecuted",
      "type": "event"
    },
    {
      "anonymous": false,
      "inputs": [
        {
          "indexed": true,
          "internalType": "address",
          "name": "sender",
          "type": "address"
        },
        {
          "indexed": false,
          "internalType": "uint256",
          "name": "amountOutMin",
          "type": "uint256"
        },
        {
          "indexed": false,
          "internalType": "address[]",
          "name": "path",
          "type": "address[]"
        },
        {
          "indexed": false,
          "internalType": "uint256",
          "name": "deadline",
          "type": "uint256"
        }
      ],
      "name": "TradeExecuted",
      "type": "event"
    },
    {
      "anonymous": false,
      "inputs": [
        {
          "indexed": true,
          "internalType": "address",
          "name": "depositor",
          "type": "address"
        },
        {
          "indexed": true,
          "internalType": "address",
          "name": "token",
          "type": "address"
        },
        {
          "indexed": false,
          "internalType": "uint256",
          "name": "amount",
          "type": "uint256"
        }
      ],
      "name": "Withdrawn",
      "type": "event"
    },
    {
      "inputs": [],
      "name": "amount",
      "outputs": [
        {
          "internalType": "uint256",
          "name": "",
          "type": "uint256"
        }
      ],
      "stateMutability": "view",
      "type": "function"
    },
    {
      "inputs": [],
      "name": "arbiter",
      "outputs": [
        {
          "internalType": "address",
          "name": "",
          "type": "address"
        }
      ],
      "stateMutability": "view",
      "type": "function"
    },
    {
      "inputs": [],
      "name": "confirmTrade",
      "outputs": [],
      "stateMutability": "nonpayable",
      "type": "function"
    },
    {
      "inputs": [],
      "name": "counterparty",
      "outputs": [
        {
          "internalType": "address",
          "name": "",
          "type": "address"
        }
      ],
      "stateMutability": "view",
      "type": "function"
    },
    {
      "inputs": [],
      "name": "currentState",
      "outputs": [
        {
          "internalType": "enum Escrow.State",
          "name": "",
          "type": "uint8"
        }
      ],
      "stateMutability": "view",
      "type": "function"
    },
    {
      "inputs": [],
      "name": "deposit",
      "outputs": [],
      "stateMutability": "payable",
      "type": "function"
    },
    {
      "inputs": [],
      "name": "depositor",
      "outputs": [
        {
          "internalType": "address",
          "name": "",
          "type": "address"
        }
      ],
      "stateMutability": "view",
      "type": "function"
    },
    {
      "inputs": [
        {
          "internalType": "uint256",
          "name": "amountOutMin",
          "type": "uint256"
        },
        {
          "internalType": "address[]",
          "name": "path",
          "type": "address[]"
        },
        {
          "internalType": "uint256",
          "name": "deadline",
          "type": "uint256"
        }
      ],
      "name": "executeTrade",
      "outputs": [],
      "stateMutability": "nonpayable",
      "type": "function"
    },
    {
      "inputs": [],
      "name": "getAmount",
      "outputs": [
        {
          "internalType": "uint256",
          "name": "",
          "type": "uint256"
        }
      ],
      "stateMutability": "view",
      "type": "function"
    },
    {
      "inputs": [],
      "name": "getCounterparty",
      "outputs": [
        {
          "internalType": "address",
          "name": "",
          "type": "address"
        }
      ],
      "stateMutability": "view",
      "type": "function"
    },
    {
      "inputs": [],
      "name": "getDepositor",
      "outputs": [
        {
          "internalType": "address",
          "name": "",
          "type": "address"
        }
      ],
      "stateMutability": "view",
      "type": "function"
    },
    {
      "inputs": [],
      "name": "getSignature",
      "outputs": [
        {
          "internalType": "bytes",
          "name": "",
          "type": "bytes"
        }
      ],
      "stateMutability": "view",
      "type": "function"
    },
    {
      "inputs": [],
      "name": "getToken",
      "outputs": [
        {
          "internalType": "address",
          "name": "",
          "type": "address"
        }
      ],
      "stateMutability": "view",
      "type": "function"
    },
    {
      "inputs": [],
      "name": "getTradeHash",
      "outputs": [
        {
          "internalType": "bytes32",
          "name": "",
          "type": "bytes32"
        }
      ],
      "stateMutability": "view",
      "type": "function"
    },
    {
      "inputs": [],
      "name": "owner",
      "outputs": [
        {
          "internalType": "address",
          "name": "",
          "type": "address"
        }
      ],
      "stateMutability": "view",
      "type": "function"
    },
    {
      "inputs": [],
      "name": "refund",
      "outputs": [],
      "stateMutability": "nonpayable",
      "type": "function"
    },
    {
      "inputs": [],
      "name": "renounceOwnership",
      "outputs": [],
      "stateMutability": "nonpayable",
      "type": "function"
    },
    {
      "inputs": [],
      "name": "signature",
      "outputs": [
        {
          "internalType": "bytes",
          "name": "",
          "type": "bytes"
        }
      ],
      "stateMutability": "view",
      "type": "function"
    },
    {
      "inputs": [],
      "name": "token",
      "outputs": [
        {
          "internalType": "address",
          "name": "",
          "type": "address"
        }
      ],
      "stateMutability": "view",
      "type": "function"
    },
    {
      "inputs": [],
      "name": "tradeHash",
      "outputs": [
        {
          "internalType": "bytes32",
          "name": "",
          "type": "bytes32"
        }
      ],
      "stateMutability": "view",
      "type": "function"
    },
    {
      "inputs": [
        {
          "internalType": "address",
          "name": "newOwner",
          "type": "address"
        }
      ],
      "name": "transferOwnership",
      "outputs": [],
      "stateMutability": "nonpayable",
      "type": "function"
    },
    {
      "inputs": [],
      "name": "uniswapRouter",
      "outputs": [
        {
          "internalType": "address",
          "name": "",
          "type": "address"
        }
      ],
      "stateMutability": "view",
      "type": "function"
    }
  ],
  "bytecode": "0x60806040523480156200001157600080fd5b50604051620028ad380380620028ad833981810160405281019062000037919062000812565b80600073ffffffffffffffffffffffffffffffffffffffff168173ffffffffffffffffffffffffffffffffffffffff1603620000ad5760006040517f1e4fbdf7000000000000000000000000000000000000000000000000000000008152600401620000a4919062000921565b60405180910390fd5b620000be81620004e060201b60201c565b50600073ffffffffffffffffffffffffffffffffffffffff168973ffffffffffffffffffffffffffffffffffffffff160362000131576040517f08c379a000000000000000000000000000000000000000000000000000000000815260040162000128906200099f565b60405180910390fd5b600073ffffffffffffffffffffffffffffffffffffffff168873ffffffffffffffffffffffffffffffffffffffff1603620001a3576040517f08c379a00000000000000000000000000000000000000000000000000000000081526004016200019a9062000a11565b60405180910390fd5b60008711620001e9576040517f08c379a0000000000000000000000000000000000000000000000000000000008152600401620001e09062000a83565b60405180910390fd5b600073ffffffffffffffffffffffffffffffffffffffff168673ffffffffffffffffffffffffffffffffffffffff16036200025b576040517f08c379a0000000000000000000000000000000000000000000000000000000008152600401620002529062000b1b565b60405180910390fd5b600073ffffffffffffffffffffffffffffffffffffffff168573ffffffffffffffffffffffffffffffffffffffff1603620002cd576040517f08c379a0000000000000000000000000000000000000000000000000000000008152600401620002c49062000b8d565b60405180910390fd5b600073ffffffffffffffffffffffffffffffffffffffff168273ffffffffffffffffffffffffffffffffffffffff16036200033f576040517f08c379a0000000000000000000000000000000000000000000000000000000008152600401620003369062000c25565b60405180910390fd5b88600160006101000a81548173ffffffffffffffffffffffffffffffffffffffff021916908373ffffffffffffffffffffffffffffffffffffffff16021790555087600260006101000a81548173ffffffffffffffffffffffffffffffffffffffff021916908373ffffffffffffffffffffffffffffffffffffffff1602179055508660038190555085600460006101000a81548173ffffffffffffffffffffffffffffffffffffffff021916908373ffffffffffffffffffffffffffffffffffffffff16021790555084600560006101000a81548173ffffffffffffffffffffffffffffffffffffffff021916908373ffffffffffffffffffffffffffffffffffffffff16021790555083600681905550826007908162000462919062000e88565b5081600860006101000a81548173ffffffffffffffffffffffffffffffffffffffff021916908373ffffffffffffffffffffffffffffffffffffffff16021790555060008060146101000a81548160ff02191690836003811115620004cc57620004cb62000f6f565b5b021790555050505050505050505062000f9e565b60008060009054906101000a900473ffffffffffffffffffffffffffffffffffffffff169050816000806101000a81548173ffffffffffffffffffffffffffffffffffffffff021916908373ffffffffffffffffffffffffffffffffffffffff1602179055508173ffffffffffffffffffffffffffffffffffffffff168173ffffffffffffffffffffffffffffffffffffffff167f8be0079c531659141344cd1fd0a4f28419497f9722a3daafe3b4186f6b6457e060405160405180910390a35050565b6000604051905090565b600080fd5b600080fd5b600073ffffffffffffffffffffffffffffffffffffffff82169050919050565b6000620005e582620005b8565b9050919050565b620005f781620005d8565b81146200060357600080fd5b50565b6000815190506200061781620005ec565b92915050565b6000819050919050565b62000632816200061d565b81146200063e57600080fd5b50565b600081519050620006528162000627565b92915050565b6000819050919050565b6200066d8162000658565b81146200067957600080fd5b50565b6000815190506200068d8162000662565b92915050565b600080fd5b600080fd5b6000601f19601f8301169050919050565b7f4e487b7100000000000000000000000000000000000000000000000000000000600052604160045260246000fd5b620006e8826200069d565b810181811067ffffffffffffffff821117156200070a5762000709620006ae565b5b80604052505050565b60006200071f620005a4565b90506200072d8282620006dd565b919050565b600067ffffffffffffffff82111562000750576200074f620006ae565b5b6200075b826200069d565b9050602081019050919050565b60005b83811015620007885780820151818401526020810190506200076b565b60008484015250505050565b6000620007ab620007a58462000732565b62000713565b905082815260208101848484011115620007ca57620007c962000698565b5b620007d784828562000768565b509392505050565b600082601f830112620007f757620007f662000693565b5b81516200080984826020860162000794565b91505092915050565b60008060008060008060008060006101208a8c031215620008385762000837620005ae565b5b6000620008488c828d0162000606565b99505060206200085b8c828d0162000606565b98505060406200086e8c828d0162000641565b9750506060620008818c828d0162000606565b9650506080620008948c828d0162000606565b95505060a0620008a78c828d016200067c565b94505060c08a015167ffffffffffffffff811115620008cb57620008ca620005b3565b5b620008d98c828d01620007df565b93505060e0620008ec8c828d0162000606565b925050610100620009008c828d0162000606565b9150509295985092959850929598565b6200091b81620005d8565b82525050565b600060208201905062000938600083018462000910565b92915050565b600082825260208201905092915050565b7f4465706f7369746f7220616464726573732063616e6e6f74206265207a65726f600082015250565b6000620009876020836200093e565b915062000994826200094f565b602082019050919050565b60006020820190508181036000830152620009ba8162000978565b9050919050565b7f546f6b656e20616464726573732063616e6e6f74206265207a65726f00000000600082015250565b6000620009f9601c836200093e565b915062000a0682620009c1565b602082019050919050565b6000602082019050818103600083015262000a2c81620009ea565b9050919050565b7f416d6f756e74206d7573742062652067726561746572207468616e207a65726f600082015250565b600062000a6b6020836200093e565b915062000a788262000a33565b602082019050919050565b6000602082019050818103600083015262000a9e8162000a5c565b9050919050565b7f436f756e746572706172747920616464726573732063616e6e6f74206265207a60008201527f65726f0000000000000000000000000000000000000000000000000000000000602082015250565b600062000b036023836200093e565b915062000b108262000aa5565b604082019050919050565b6000602082019050818103600083015262000b368162000af4565b9050919050565b7f4172626974657220616464726573732063616e6e6f74206265207a65726f0000600082015250565b600062000b75601e836200093e565b915062000b828262000b3d565b602082019050919050565b6000602082019050818103600083015262000ba88162000b66565b9050919050565b7f556e697377617020726f7574657220616464726573732063616e6e6f7420626560008201527f207a65726f000000000000000000000000000000000000000000000000000000602082015250565b600062000c0d6025836200093e565b915062000c1a8262000baf565b604082019050919050565b6000602082019050818103600083015262000c408162000bfe565b9050919050565b600081519050919050565b7f4e487b7100000000000000000000000000000000000000000000000000000000600052602260045260246000fd5b6000600282049050600182168062000c9a57607f821691505b60208210810362000cb05762000caf62000c52565b5b50919050565b60008190508160005260206000209050919050565b60006020601f8301049050919050565b600082821b905092915050565b60006008830262000d1a7fffffffffffffffffffffffffffffffffffffffffffffffffffffffffffffffff8262000cdb565b62000d26868362000cdb565b95508019841693508086168417925050509392505050565b6000819050919050565b600062000d6962000d6362000d5d846200061d565b62000d3e565b6200061d565b9050919050565b6000819050919050565b62000d858362000d48565b62000d9d62000d948262000d70565b84845462000ce8565b825550505050565b600090565b62000db462000da5565b62000dc181848462000d7a565b505050565b5b8181101562000de95762000ddd60008262000daa565b60018101905062000dc7565b5050565b601f82111562000e385762000e028162000cb6565b62000e0d8462000ccb565b8101602085101562000e1d578190505b62000e3562000e2c8562000ccb565b83018262000dc6565b50505b505050565b600082821c905092915050565b600062000e5d6000198460080262000e3d565b1980831691505092915050565b600062000e78838362000e4a565b9150826002028217905092915050565b62000e938262000c47565b67ffffffffffffffff81111562000eaf5762000eae620006ae565b5b62000ebb825462000c81565b62000ec882828562000ded565b600060209050601f83116001811462000f00576000841562000eeb578287015190505b62000ef7858262000e6a565b86555062000f67565b601f19841662000f108662000cb6565b60005b8281101562000f3a5784890151825560018201915060208501945060208101905062000f13565b8683101562000f5a578489015162000f56601f89168262000e4a565b8355505b6001600288020188555050505b505050505050565b7f4e487b7100000000000000000000000000000000000000000000000000000000600052602160045260246000fd5b6118ff8062000fae6000396000f3fe6080604052600436106101355760003560e01c8063a979fb89116100ab578063d321fe291161006f578063d321fe291461038d578063de1e860c146103b8578063e1b7535f146103e1578063f2fde38b1461040c578063fc0c546a14610435578063fe25e00a1461046057610135565b8063a979fb89146102d7578063aa8c217c14610302578063c3df65461461032d578063c7c4ff4614610358578063d0e30db01461038357610135565b8063590e1ae3116100fd578063590e1ae3146101fd578063715018a614610214578063728fa4941461022b578063735de9f7146102565780638a4e3769146102815780638da5cb5b146102ac57610135565b80630c3f6acf1461013a57806321df0da7146101655780634006b29d146101905780634db9afec146101a757806351ff4847146101d2575b600080fd5b34801561014657600080fd5b5061014f61048b565b60405161015c919061114c565b60405180910390f35b34801561017157600080fd5b5061017a61049e565b60405161018791906111a8565b60405180910390f35b34801561019c57600080fd5b506101a56104c8565b005b3480156101b357600080fd5b506101bc61063e565b6040516101c991906111dc565b60405180910390f35b3480156101de57600080fd5b506101e7610644565b6040516101f49190611287565b60405180910390f35b34801561020957600080fd5b506102126106d2565b005b34801561022057600080fd5b5061022961091b565b005b34801561023757600080fd5b5061024061092f565b60405161024d91906111a8565b60405180910390f35b34801561026257600080fd5b5061026b610959565b60405161027891906111a8565b60405180910390f35b34801561028d57600080fd5b5061029661097f565b6040516102a39190611287565b60405180910390f35b3480156102b857600080fd5b506102c1610a11565b6040516102ce91906111a8565b60405180910390f35b3480156102e357600080fd5b506102ec610a3a565b6040516102f991906111dc565b60405180910390f35b34801561030e57600080fd5b50610317610a44565b60405161032491906112c2565b60405180910390f35b34801561033957600080fd5b50610342610a4a565b60405161034f91906111a8565b60405180910390f35b34801561036457600080fd5b5061036d610a70565b60405161037a91906111a8565b60405180910390f35b61038b610a96565b005b34801561039957600080fd5b506103a2610c61565b6040516103af91906112c2565b60405180910390f35b3480156103c457600080fd5b506103df60048036038101906103da9190611378565b610c6b565b005b3480156103ed57600080fd5b506103f6610e86565b60405161040391906111a8565b60405180910390f35b34801561041857600080fd5b50610433600480360381019061042e9190611418565b610eb0565b005b34801561044157600080fd5b5061044a610f36565b60405161045791906111a8565b60405180910390f35b34801561046c57600080fd5b50610475610f5c565b60405161048291906111a8565b60405180910390f35b600060149054906101000a900460ff1681565b6000600260009054906101000a900473ffffffffffffffffffffffffffffffffffffffff16905090565b600460009054906101000a900473ffffffffffffffffffffffffffffffffffffffff1673ffffffffffffffffffffffffffffffffffffffff163373ffffffffffffffffffffffffffffffffffffffff1614610558576040517f08c379a000000000000000000000000000000000000000000000000000000000815260040161054f906114c8565b60405180910390fd5b6001600381111561056c5761056b6110d5565b5b600060149054906101000a900460ff16600381111561058e5761058d6110d5565b5b146105ce576040517f08c379a00000000000000000000000000000000000000000000000000000000081526004016105c590611534565b60405180910390fd5b6002600060146101000a81548160ff021916908360038111156105f4576105f36110d5565b5b02179055503373ffffffffffffffffffffffffffffffffffffffff167fd415b905d4dd806bfba99a7a0e6351bd0c9db3a9912add21c0e6bef4479f673f60405160405180910390a2565b60065481565b6007805461065190611583565b80601f016020809104026020016040519081016040528092919081815260200182805461067d90611583565b80156106ca5780601f1061069f576101008083540402835291602001916106ca565b820191906000526020600020905b8154815290600101906020018083116106ad57829003601f168201915b505050505081565b600560009054906101000a900473ffffffffffffffffffffffffffffffffffffffff1673ffffffffffffffffffffffffffffffffffffffff163373ffffffffffffffffffffffffffffffffffffffff1614610762576040517f08c379a000000000000000000000000000000000000000000000000000000000815260040161075990611626565b60405180910390fd5b60016003811115610776576107756110d5565b5b600060149054906101000a900460ff166003811115610798576107976110d5565b5b146107d8576040517f08c379a00000000000000000000000000000000000000000000000000000000081526004016107cf90611534565b60405180910390fd5b600160009054906101000a900473ffffffffffffffffffffffffffffffffffffffff1673ffffffffffffffffffffffffffffffffffffffff166108fc6003549081150290604051600060405180830381858888f19350505050158015610842573d6000803e3d6000fd5b506003600060146101000a81548160ff02191690836003811115610869576108686110d5565b5b0217905550600260009054906101000a900473ffffffffffffffffffffffffffffffffffffffff1673ffffffffffffffffffffffffffffffffffffffff16600160009054906101000a900473ffffffffffffffffffffffffffffffffffffffff1673ffffffffffffffffffffffffffffffffffffffff167fec1e5ed733e00f1a00915d56caef57b4f52312dde4f9b3165f213319a0da156b60035460405161091191906112c2565b60405180910390a3565b610923610f82565b61092d6000611009565b565b6000600460009054906101000a900473ffffffffffffffffffffffffffffffffffffffff16905090565b600860009054906101000a900473ffffffffffffffffffffffffffffffffffffffff1681565b60606007805461098e90611583565b80601f01602080910402602001604051908101604052809291908181526020018280546109ba90611583565b8015610a075780601f106109dc57610100808354040283529160200191610a07565b820191906000526020600020905b8154815290600101906020018083116109ea57829003601f168201915b5050505050905090565b60008060009054906101000a900473ffffffffffffffffffffffffffffffffffffffff16905090565b6000600654905090565b60035481565b600460009054906101000a900473ffffffffffffffffffffffffffffffffffffffff1681565b600160009054906101000a900473ffffffffffffffffffffffffffffffffffffffff1681565b600160009054906101000a900473ffffffffffffffffffffffffffffffffffffffff1673ffffffffffffffffffffffffffffffffffffffff163373ffffffffffffffffffffffffffffffffffffffff1614610b26576040517f08c379a0000000000000000000000000000000000000000000000000000000008152600401610b1d906116b8565b60405180910390fd5b60006003811115610b3a57610b396110d5565b5b600060149054906101000a900460ff166003811115610b5c57610b5b6110d5565b5b14610b9c576040517f08c379a0000000000000000000000000000000000000000000000000000000008152600401610b9390611534565b60405180910390fd5b60003411610bdf576040517f08c379a0000000000000000000000000000000000000000000000000000000008152600401610bd69061174a565b60405180910390fd5b346003819055506001600060146101000a81548160ff02191690836003811115610c0c57610c0b6110d5565b5b02179055503373ffffffffffffffffffffffffffffffffffffffff167f2da466a7b24304f47e87fa2e1e5a81b9831ce54fec19055ce277ca2f39ba42c434604051610c5791906112c2565b60405180910390a2565b6000600354905090565b600160009054906101000a900473ffffffffffffffffffffffffffffffffffffffff1673ffffffffffffffffffffffffffffffffffffffff163373ffffffffffffffffffffffffffffffffffffffff1614610cfb576040517f08c379a0000000000000000000000000000000000000000000000000000000008152600401610cf2906116b8565b60405180910390fd5b60026003811115610d0f57610d0e6110d5565b5b600060149054906101000a900460ff166003811115610d3157610d306110d5565b5b14610d71576040517f08c379a0000000000000000000000000000000000000000000000000000000008152600401610d6890611534565b60405180910390fd5b600860009054906101000a900473ffffffffffffffffffffffffffffffffffffffff1673ffffffffffffffffffffffffffffffffffffffff16635c11d795600354868686600160009054906101000a900473ffffffffffffffffffffffffffffffffffffffff16876040518763ffffffff1660e01b8152600401610dfa9695949392919061182d565b600060405180830381600087803b158015610e1457600080fd5b505af1158015610e28573d6000803e3d6000fd5b505050503373ffffffffffffffffffffffffffffffffffffffff167fd30b6021621ff4885c6b36e2f5770586e6e89773b318e5d13f38be22822100e185858585604051610e789493929190611889565b60405180910390a250505050565b6000600160009054906101000a900473ffffffffffffffffffffffffffffffffffffffff16905090565b610eb8610f82565b600073ffffffffffffffffffffffffffffffffffffffff168173ffffffffffffffffffffffffffffffffffffffff1603610f2a5760006040517f1e4fbdf7000000000000000000000000000000000000000000000000000000008152600401610f2191906111a8565b60405180910390fd5b610f3381611009565b50565b600260009054906101000a900473ffffffffffffffffffffffffffffffffffffffff1681565b600560009054906101000a900473ffffffffffffffffffffffffffffffffffffffff1681565b610f8a6110cd565b73ffffffffffffffffffffffffffffffffffffffff16610fa8610a11565b73ffffffffffffffffffffffffffffffffffffffff161461100757610fcb6110cd565b6040517f118cdaa7000000000000000000000000000000000000000000000000000000008152600401610ffe91906111a8565b60405180910390fd5b565b60008060009054906101000a900473ffffffffffffffffffffffffffffffffffffffff169050816000806101000a81548173ffffffffffffffffffffffffffffffffffffffff021916908373ffffffffffffffffffffffffffffffffffffffff1602179055508173ffffffffffffffffffffffffffffffffffffffff168173ffffffffffffffffffffffffffffffffffffffff167f8be0079c531659141344cd1fd0a4f28419497f9722a3daafe3b4186f6b6457e060405160405180910390a35050565b600033905090565b7f4e487b7100000000000000000000000000000000000000000000000000000000600052602160045260246000fd5b60048110611115576111146110d5565b5b50565b600081905061112682611104565b919050565b600061113682611118565b9050919050565b6111468161112b565b82525050565b6000602082019050611161600083018461113d565b92915050565b600073ffffffffffffffffffffffffffffffffffffffff82169050919050565b600061119282611167565b9050919050565b6111a281611187565b82525050565b60006020820190506111bd6000830184611199565b92915050565b6000819050919050565b6111d6816111c3565b82525050565b60006020820190506111f160008301846111cd565b92915050565b600081519050919050565b600082825260208201905092915050565b60005b83811015611231578082015181840152602081019050611216565b60008484015250505050565b6000601f19601f8301169050919050565b6000611259826111f7565b6112638185611202565b9350611273818560208601611213565b61127c8161123d565b840191505092915050565b600060208201905081810360008301526112a1818461124e565b905092915050565b6000819050919050565b6112bc816112a9565b82525050565b60006020820190506112d760008301846112b3565b92915050565b600080fd5b600080fd5b6112f0816112a9565b81146112fb57600080fd5b50565b60008135905061130d816112e7565b92915050565b600080fd5b600080fd5b600080fd5b60008083601f84011261133857611337611313565b5b8235905067ffffffffffffffff81111561135557611354611318565b5b6020830191508360208202830111156113715761137061131d565b5b9250929050565b60008060008060608587031215611392576113916112dd565b5b60006113a0878288016112fe565b945050602085013567ffffffffffffffff8111156113c1576113c06112e2565b5b6113cd87828801611322565b935093505060406113e0878288016112fe565b91505092959194509250565b6113f581611187565b811461140057600080fd5b50565b600081359050611412816113ec565b92915050565b60006020828403121561142e5761142d6112dd565b5b600061143c84828501611403565b91505092915050565b600082825260208201905092915050565b7f4f6e6c792074686520636f756e74657270617274792063616e2063616c6c207460008201527f6869732066756e6374696f6e0000000000000000000000000000000000000000602082015250565b60006114b2602c83611445565b91506114bd82611456565b604082019050919050565b600060208201905081810360008301526114e1816114a5565b9050919050565b7f496e76616c696420737461746500000000000000000000000000000000000000600082015250565b600061151e600d83611445565b9150611529826114e8565b602082019050919050565b6000602082019050818103600083015261154d81611511565b9050919050565b7f4e487b7100000000000000000000000000000000000000000000000000000000600052602260045260246000fd5b6000600282049050600182168061159b57607f821691505b6020821081036115ae576115ad611554565b5b50919050565b7f4f6e6c792074686520617262697465722063616e2063616c6c2074686973206660008201527f756e6374696f6e00000000000000000000000000000000000000000000000000602082015250565b6000611610602783611445565b915061161b826115b4565b604082019050919050565b6000602082019050818103600083015261163f81611603565b9050919050565b7f4f6e6c7920746865206465706f7369746f722063616e2063616c6c207468697360008201527f2066756e6374696f6e0000000000000000000000000000000000000000000000602082015250565b60006116a2602983611445565b91506116ad82611646565b604082019050919050565b600060208201905081810360008301526116d181611695565b9050919050565b7f4465706f73697420616d6f756e74206d7573742062652067726561746572207460008201527f68616e2030000000000000000000000000000000000000000000000000000000602082015250565b6000611734602583611445565b915061173f826116d8565b604082019050919050565b6000602082019050818103600083015261176381611727565b9050919050565b600082825260208201905092915050565b6000819050919050565b61178e81611187565b82525050565b60006117a08383611785565b60208301905092915050565b60006117bb6020840184611403565b905092915050565b6000602082019050919050565b60006117dc838561176a565b93506117e78261177b565b8060005b85811015611820576117fd82846117ac565b6118078882611794565b9750611812836117c3565b9250506001810190506117eb565b5085925050509392505050565b600060a08201905061184260008301896112b3565b61184f60208301886112b3565b81810360408301526118628186886117d0565b90506118716060830185611199565b61187e60808301846112b3565b979650505050505050565b600060608201905061189e60008301876112b3565b81810360208301526118b18185876117d0565b90506118c060408301846112b3565b9594505050505056fea2646970667358221220962c791ede4ad8534db2fd774a9614c326cab477043c5efa3aded68a0f50010464736f6c63430008140033",
  "linkReferences": {},
  "deployedLinkReferences": {}
}